:04000005000E0201E6
:020000040000FA
:1000000000040020990900002D0600007909000075
:1000100037060000410600004B060000000000000B
:10002000000000000000000000000000BD0900000A
:1000300055060000000000005F0600006906000091
:10004000730600007D060000870600009106000090
:100050009B060000A5060000AF060000B9060000E0
:10006000C3060000CD060000D7060000E106000030
:10007000EB060000F5060000FF060000090700007F
:10008000130700001D0700002707000031070000CC
:100090003B070000450700004F070000590700001C
:1000A000630700006D07000077070000810700006C
:1000B0008B070000950700009F070000A9070000BC
:1000C000B3070000BD070000C7070000D10700000C
:1000D000DB070000E5070000EF070000F90700005C
:1000E000030800000D0800001708000021080000A8
:1000F0002B080000350800003F08000049080000F8
:10010000530800001FB500F003F88DE80F001FBD75
:1001100000F038BC70B50B46010B184400F6FF70B8
:10012000040B4FF080500022090303692403406947
:1001300043431D1B104600F0E9F929462046BDE85F
:10014000704000F0E3B9F0B54FF6FF734FF4B475AB
:100150001A466E1E12E0A94201D3344600E00C4656
:10016000B1EB040130F8027B641E3B441A44F9D120
:100170009CB204EB134394B204EB12420029EAD17F
:1001800098B200EB134002EB124140EA0140F0BD8F
:10019000C34992B00446D1E90001CDE91001FF2224
:1001A0004021684600F094FB94E80F008DE80F00B2
:1001B000684610A902E004C841F8042D8842FAD12B
:1001C00010216846FFF7BFFF1090AA208DF8440069
:1001D00000F0FAF800F0DDF84FF01024A0691022CA
:1001E0006946803000F0DEF8A069082210A900F00E
:1001F000D9F800F0C2F870B504460068A94D072888
:1002000069D2DFE800F033041929561E2500D4E92D
:10021000026564682946304600F0FDF82A4621460A
:10022000304600F0BFF8AA002146304600F024FB1B
:10023000002800D0032070BD00F0D6FB4FF48050A2
:1002400007E0201D00F0C6F80028F4D100F0CCFB38
:1002500060682860002070BD241D94E807009200AB
:1002600000F00AFB0028F6D00E2070BD00F0BEF8AA
:100270000028FAD1D4E9010100EB81034FF080504E
:10028000026945696A43934209D84FF010225369C5
:1002900003EB81030169406941438B4201D9092085
:1002A00070BD5069401C01D10F2070BD2046FFF782
:1002B0006FFF00F09BF80028F7D1201D00F08AF8AE
:1002C0000028F2D160680028F0D100F07DF800F03D
:1002D00060F800F052F8072070BD10B50C461828E1
:1002E00002D00120086010BD2068FFF784FF206065
:1002F00010BD4FF01024A069401C05D0A569A66967
:1003000080353079AA2808D06069401C2DD06069FA
:100310000068401C29D060692CE010212846FFF7B6
:1003200012FF316881421CD1A16901F18002C03104
:1003300005E030B108CA51F8040D984201D10120FE
:1003400000E000208A42F4D158B1286810B1042896
:1003500003D0FEE7284600F070F85249686808604C
:1003600008E000F016F800F008F84FF4805001683B
:10037000491C01D000F012FBFEE7BFF34F8F4A4843
:1003800001684A4A01F4E06111430160BFF34F8FF5
:10039000FEE74FF010208169491C02D0806900F00F
:1003A0008CB870472DE9F04117460D4606460024EB
:1003B00006E03046296800F093F8641C2D1D361DB8
:1003C000BC42F6D3BDE8F0814FF0102080694FF4B5
:1003D00080519FE64FF080510A69496900684A439D
:1003E000824201D810207047002070474FF08050A3
:1003F0000169406941434FF01020826902F5805243
:10040000914201D2092070478069401C01D0002030
:1004100070470420704770B50C4605464FF480665F
:1004200008E0284600F049F8B44205D3A4F58064FA
:1004300005F58055002CF4D170BD4168044609B122
:10044000012600E000264FF010256869A26892009E
:1004500000F012FAF8B1A06881006869FFF75AFE4F
:10046000BEB16E694FF08050A56864680169426949
:100470005143A1420DD9016940694143A94208D9BC
:1004800029463046FFF7C7FF2A4621463046FFF788
:1004900089FFFFF772FFFFF797FFFFF77AFFF8E793
:1004A0000C0A0000000000200CED00E00400FA053A
:1004B000144801680029FCD07047134A02211160DA
:1004C00010490B68002BFCD00F4B1B1D18600868EF
:1004D0000028FCD00020106008680028FCD070477D
:1004E000094B10B501221A60064A1468002CFCD092
:1004F000016010680028FCD00020186010680028F7
:10050000FCD010BD00E4014004E5014070B50C468C
:10051000054600F073F810B900F07EF828B12146C6
:100520002846BDE8704000F007B821462846BDE8DF
:10053000704000F037B800007FB5002200920192B1
:10054000029203920A0B000B6946012302440AE05F
:10055000440900F01F0651F8245003FA06F635430B
:1005600041F82450401C8242F2D80D490868009A94
:1005700010430860081D0168019A1143016000F0F2
:100580003DF800280AD0064910310868029A104345
:100590000860091D0868039A104308607FBD0000C9
:1005A0000006004030B50F4C002200BF04EB0213E0
:1005B000D3F800582DB9D3F8045815B9D3F8085812
:1005C0001DB1521C082AF1D330BD082AFCD204EB1D
:1005D0000212C2F80008C3F804180220C3F8080881
:1005E00030BD000000E001404FF08050D0F83001F5
:1005F000082801D000207047012070474FF080503C
:10060000D0F83011062905D0D0F83001401C01D0B7
:1006100000207047012070474FF08050D0F8300123
:100620000A2801D0002070470120704708208F4918
:1006300009680958084710208C4909680958084773
:1006400014208A4909680958084718208749096809
:100650000958084730208549096809580847382053
:1006600082490968095808473C20804909680958A7
:10067000084740207D4909680958084744207B49BC
:1006800009680958084748207849096809580847FF
:100690004C20764909680958084750207349096871
:1006A00009580847542071490968095808475820D3
:1006B0006E490968095808475C206C49096809585F
:1006C0000847602069490968095808476420674954
:1006D00009680958084768206449096809580847A3
:1006E0006C20624909680958084770205F49096809
:1006F0000958084774205D49096809580847782057
:100700005A490968095808477C2058490968095816
:1007100008478020554909680958084784205349EB
:100720000968095808478820504909680958084746
:100730008C204E4909680958084790204B490968A0
:1007400009580847942049490968095808479820DA
:1007500046490968095808479C20444909680958CE
:100760000847A0204149096809580847A4203F4983
:10077000096809580847A8203C49096809580847EA
:10078000AC203A49096809580847B0203749096838
:1007900009580847B4203549096809580847B8205E
:1007A0003249096809580847BC2030490968095886
:1007B0000847C0202D49096809580847C4202B491B
:1007C000096809580847C82028490968095808478E
:1007D000CC202649096809580847D02023490968D0
:1007E00009580847D4202149096809580847D820E2
:1007F0001E49096809580847DC201C49096809583E
:100800000847E0201949096809580847E4201749B2
:10081000096809580847E820144909680958084731
:10082000EC201249096809580847F0200F49096867
:1008300009580847F4200D49096809580847F82065
:100840000A49096809580847FC20084909680958F5
:1008500008475FF480700549096809580847000097
:1008600003480449024A034B70470000000000207F
:10087000180A0000180A000040EA010310B59B079F
:100880000FD1042A0DD310C808C9121F9C42F8D0FA
:1008900020BA19BA884201D9012010BD4FF0FF30AB
:1008A00010BD1AB1D30703D0521C07E0002010BDC1
:1008B00010F8013B11F8014B1B1B07D110F8013B4D
:1008C00011F8014B1B1B01D1921EF1D1184610BD2E
:1008D00002F0FF0343EA032242EA024200F005B8B5
:1008E0007047704770474FF000020429C0F0128033
:1008F00010F0030C00F01B80CCF1040CBCF1020FD3
:1009000018BF00F8012BA8BF20F8022BA1EB0C01A7
:1009100000F00DB85FEAC17C24BF00F8012B00F89D
:10092000012B48BF00F8012B70474FF0000200B5C3
:10093000134694469646203922BFA0E80C50A0E802
:100940000C50B1F12001BFF4F7AF090728BFA0E8B0
:100950000C5048BF0CC05DF804EB890028BF40F87C
:10096000042B08BF704748BF20F8022B11F0804FBE
:1009700018BF00F8012B7047014B1B68DB68184754
:100980000000002009480A497047FFF7FBFFFFF706
:10099000B9FB00BD20BFFDE7064B1847064A1060B3
:1009A000016881F30888406800470000180A0000C9
:1009B000180A0000F3020000000000201EF0040FDF
:1009C0000CBFEFF30881EFF30981886902380078E2
:1009D000182803D100E00000074A1047074A1268B0
:1009E0002C3212681047000000B5054B1B68054A01
:1009F0009B58984700BD0000DB020000000000206B
:100A0000080A0000040000000010000000000000C0
:080A100000FFFFFF0090D0037E
:02000004000EEC
:1000000018590020C9030E00D1030E00D3030E00BF
:10001000D5030E00D7030E00D9030E000000000028
:10002000000000000000000000000000DB030E00E4
:10003000DD030E0000000000DF030E00E1030E00F0
:10004000ED190E00E3030E00E3030E00E3030E00C0
:10005000E3030E00E3030E00E3030E00E3030E00D0
:10006000E3030E00E3030E00E3030E00E3030E00C0
:10007000E3030E00E3030E00E3030E00E3030E00B0
:10008000511D0E00FD190E00E3030E00E3030E00E8
:10009000E3030E00E3030E00E3030E00E3030E0090
:1000A000E3030E00E3030E00E3030E00E3030E0080
:1000B000E3030E00E3030E00000000000000000058
:1000C000E3030E00E3030E00E3030E00E3030E0060
:1000D000E3030E00E3030E00E3030E00E91B0E0032
:1000E000E3030E00E3030E0041050E0000000000D4
:1000F00000000000E3030E0000000000E3030E0018
:1001000000000000000000000000000000000000EF
:1001100000000000000000000000000000000000DF
:1001200000000000000000000000000000000000CF
:1001300000000000000000000000000000000000BF
:1001400000000000000000000000000000000000AF
:10015000000000000000000000000000000000009F
:10016000000000000000000000000000000000008F
:10017000000000000000000000000000000000007F
:10018000000000000000000000000000000000006F
:10019000000000000000000000000000000000005F
:1001A000000000000000000000000000000000004F
:1001B000000000000000000000000000000000003F
:1001C000000000000000000000000000000000002F
:1001D000000000000000000000000000000000001F
:1001E000000000000000000000000000000000000F
:1001F00000000000000000000000000000000000FF
:10020000DFF80CD000F08AF900480047E1470E0003
:100210001859002080F308888E46104730B450E803
:10022000012F93B2C48923448489A34228BF1B1B96
:100230000489A34202BFBFF32F8F002007E0C3EA67
:10024000020340E80134002CE9D14FF001000A60BC
:1002500030BC704750E8012FC2EA024240E8012159
:100260000029F7D1704730B450E8022F1FFAA2F3EB
:10027000C488A34202BFBFF32F8F00200DE0C489C2
:1002800023448489A34228BF1B1BC2EA034340E8DE
:100290000234002CE8D14FF001000A6030BC7047F6
:1002A00050E8022FC2EA224240E802210029F7D199
:1002B0007047034653E8022FD988B2EB324F4FF014
:1002C000000017BF92B241EA014142EA014104E055
:1002D0005A68B2EB324F08BF012043E80212002AED
:1002E000E8D1704730B4044654E8000F0D4644E8A6
:1002F0000053002BF8D1156030BC704730B4044671
:1003000054E8000F40EA010544E80053002BF7D100
:10031000156030BC704730B4044654E8000F00EA62
:10032000010544E80053002BF7D1156030BC70473D
:1003300030B4044654E8000F80EA010544E8005355
:10034000002BF7D1156030BC704730B4044654E838
:10035000000F00EB010544E80053002BF7D11560B6
:1003600030BC704730B4044654E8000FA0EB0105E0
:1003700044E80053002BF7D1156030BC704770B4CF
:1003800004464FF0000054E8006F0D68AE4207BF0E
:1003900044E80023012044E800630E60002B1CBFEA
:1003A0000020F0E770BC704730B4044654E8000FFA
:1003B00088422CBF451A054644E80053002BF5D16E
:1003C000156030BC7047000006488047064800476B
:1003D000FEE7FEE7FEE7FEE7FEE7FEE7FEE7FEE7F5
:1003E000FEE7FEE70D1A0E0001020E002DE9F05F98
:1003F0000546002092469B46884606468146402494
:100400001BE0284641464746224600F076F8534610
:100410005A46C01A914110D311461846224600F0A0
:1004200016F82D1A67EB01084F46224601200021DD
:1004300000F00DF817EB00094E41201EA4F1010455
:10044000DFDC484631462A464346BDE8F09F202A75
:1004500004DB203A00FA02F1002070479140C2F11B
:10046000200320FA03F319439040704710B5441A53
:100470000346944209D28418114403E011F8013D67
:1004800004F8013D521EF9D210BD40EA0104A40750
:1004900003D009E010C9121F10C3042AFAD203E0E6
:1004A00011F8014B03F8014B521EF9D210BDD2B224
:1004B00001E000F8012B491EFBD270470022F6E74D
:1004C00010B513460A4604461946FFF7F0FF2046CA
:1004D00010BD421C10F8011B0029FBD1801A704787
:1004E00030B504460020034600E05B1C934203D273
:1004F000E05CCD5C401BF8D030BD202A04DB203A04
:1005000021FA02F00021704721FA02F3D040C2F133
:10051000200291400843194670470000064C074DE1
:1005200006E0E06840F0010394E8070098471034C3
:10053000AC42F6D3FFF768FEDC8B0E00FC8B0E009E
:10054000054B4FF0FF321A6053F8042C034B1A602E
:100550001A68034B1A60704704BA0250143900201D
:1005600008BA025001EB820204388A4201D100200D
:10057000704752F8043D1BBA40F8043FF5E700000D
:1005800000B5374B8FB019461A680092009AD2070F
:10059000FAD5344B344A1A600A680192019AD0079E
:1005A000FAD5324A1A600A680292029AD207FAD53C
:1005B0002F4A1A600A680392039AD007FAD52D4A87
:1005C0001A600A680492049AD207FAD52A4A1A6075
:1005D0000A680592059AD007FAD5284A1A600A686F
:1005E0000692069AD207FAD5254A1A600A68079237
:1005F000079AD007FAD5234A1A600A680892089A1F
:10060000D207FAD5204A1A600A680992099AD007D7
:10061000FAD51E4A1A600A680A920A9AD207FAD5CF
:100620001B4A1A6008680B900B98C007FAD51A602D
:100630000A680C920C9AD007FAD5164A1A600A6812
:100640000D920D9AD207FAD5134A1A600E210D2386
:100650000F22002000F088FD0FB05DF804FB00BF02
:10066000B0B0025080B0025080430129406339216C
:10067000807001298020542100D13490C0403490F2
:10068000C0302029C0530D9000413890832308C802
:1006900080E3102100413821CF4308C810B5504BEA
:1006A00096B01C461A680192019AD207FAD54D4BB2
:1006B0004D4A1A6022680292029AD207FAD54B4A32
:1006C0001A604B4A42EA804022680392039AD2079A
:1006D000FAD5186022680492049AD007FAD5454AE0
:1006E0001A60A2F5800242EA814122680592059AC9
:1006F000D207FAD5196022680692069AD007FAD571
:100700003D4A1A6022680792079AD107FAD53B4AF8
:100710001A6022680892089AD207FAD5384A1A60F5
:1007200022680992099AD007FAD5364A1A602268D7
:100730000A920A9AD107FAD5334A1A6022680B92B4
:100740000B9AD207FAD5314A1A6022680C920C9A99
:10075000D007FAD52E4A1A6022680D920D9AD10759
:10076000FAD52C4A1A6022680E920E9AD207FAD550
:10077000294A1A6022680F920F9AD007FAD5274AA1
:100780001A60216810911099C907FAD51A60144BA4
:100790001A46196811911199C807FAD5114B2049C9
:1007A0001960116812911299C907FAD51D4919608B
:1007B000116813911399CC07FAD50B491960116888
:1007C00014911499C807FAD5174919601168159141
:1007D0001599C907FAD5154A1A6016B010BD00BFA1
:1007E000B0B0025080B002504004419000862929E8
:1007F000D81001C8401441904014212940146521AB
:100800000034409000310C90C0400C90C030202942
:1008100040960D9000416090031645C80086112156
:1008200000416021594644C84014459040142D9021
:10083000F0B5464B89B01D461C680194019CE40745
:10084000FAD5434BDFF810C1DFF810E113449B00E9
:100850000A181B681E2A88BFC0F11E011F330A1820
:100860005B095A43B2F5806F88BF4FF480614FF047
:10087000000484BFB1FBF3F1091A00F1A05000F5A8
:100880002C402746A14233DC2A680492049AD207FE
:10089000FAD5304A1268296805910599CF07FAD52B
:1008A0002D482E4C0260002216469A4202F10101A8
:1008B00040D12A4C134621F0010100268B423CD343
:1008C0002B680693069BDE07FAD5254B1B682C6820
:1008D0000794079CE407FAD5036000231F481C46D1
:1008E0009A422DD11D4A00208B422CD309B0F0BD75
:1008F0002A680292029AD207FAD502199200126867
:100900002E680396039EF607FAD5CCF80020002245
:100910009A4202F1010206D11E4622F001029642DD
:1009200004D30134AEE7CEF80070F1E7CEF80070E2
:100930000136F4E726600A46B7E726600133BDE7D3
:1009400004600133CCE710600133CDE7B4B002504E
:1009500024AC00147CB00250D4B00250D8B0025085
:1009600078B00250F0B5294D85B02C462E6800961F
:10097000009EF607FAD500F1A05000F52C4080004B
:100980000568206801900198C707FAD52048214FD3
:10099000056002EB8306B24229D15A1C1D4E22F09B
:1009A00001020027934227D323680293029BDE07AC
:1009B000FAD5194B0B449B001B681F335B099A4205
:1009C00013D2216803910399C907FAD51544002170
:1009D0009B1A104A05600846994210D35A1C0D49CB
:1009E00022F00102002093420CD305B0F0BD52F872
:1009F00004EBC7F800E0CEE737600133D2E71060C0
:100A00000131E9E708600133EDE700BFB4B00250FF
:100A1000D4B00250D8B0025024AC001410B5494BE9
:100A200094B019461A680092009AD207FAD5464B3C
:100A3000464A1A600A680192019AD407FAD5444AD4
:100A40001A600A680292029AD007FAD541481860E3
:100A50000A680392039AD207FAD53F4A1A600A68D5
:100A60000492049AD407FAD53C4A1A600A6805929F
:100A7000059AD207FAD53A4A1A600A680692069A87
:100A8000D407FAD5374A1A600A680792079AD2073C
:100A9000FAD5354A1A600A680892089AD407FAD536
:100AA000324A1A600A680992099AD207FAD5304A7E
:100AB0001A600A680A920A9AD407FAD52D4A1A606F
:100AC0000A680B920B9AD207FAD52B4A1A600A6869
:100AD0000C920C9AD407FAD5284A1A600A680D922B
:100AE0000D9AD207FAD5264A1A600A680E920E9A13
:100AF000D407FAD5234A1A600A680F920F9AD207D0
:100B0000FAD5214A1A600F4B19461C681094109CA4
:100B1000E407FAD50C4B1860086811901198C407C7
:100B2000FAD51A600A681292129AD007FAD5174AB3
:100B30001A600A681392139AD207FAD5144A1A60F7
:100B400014B010BDB0B0025080B00250809065214A
:100B500000040990409665908080612180200821E2
:100B60008020649000816190004610210081112155
:100B70000041442180202029024610C80086092116
:100B80008020602140212829409665214096252912
:100B9000594614C810B5544B98B019461A680192BA
:100BA000019AD207FAD5514B514A1A600A6802924B
:100BB000029AD407FAD54F4A1A600A680392039A38
:100BC000D007FAD54C4818600A680492049AD207F4
:100BD000FAD54A4A1A600A680592059AD407FAD5E6
:100BE000474A1A600A680692069AD207FAD5454A19
:100BF0001A600A680792079AD407FAD5424A1A601F
:100C00000A680892089AD207FAD5404A1A600A6818
:100C10000992099AD407FAD53D4A1A600A680A92DD
:100C20000A9AD207FAD53B4A1A600A680B920B9AC5
:100C3000D407FAD5384A1A600A680C920C9AD2077F
:100C4000FAD5364A1A600A680D920D9AD407FAD579
:100C5000334A1A600A680E920E9AD207FAD5314AC0
:100C60001A600A680F920F9AD407FAD52E4A1A60B2
:100C70000A681092109AD207FAD52C4A1A601A4BB9
:100C800019461C681194119CE407FAD5174B18609B
:100C9000086812901298C407FAD51A600A6813926D
:100CA000139AD007FAD5124A1A600A681492149A55
:100CB000D207FAD51E4A1A600A681592159AD40707
:100CC000FAD51C4A1A600A681692169AD007FAD505
:100CD000194A1A600A681792179AD207FAD5174A62
:100CE0001A6018B010BD00BFB0B0025080B0025002
:100CF0000093652100043190409665900083612146
:100D000000C3302100C3649000816190004610212F
:100D1000008111210041442100C320290C4610C844
:100D20000086312100C3602140C1282940966521F9
:100D30000013319040962529594614C84004324981
:100D40002DE9F041814B1D6898682033A0B01E4604
:100D50001A680192019AD707FAD57D4B7D4A1A602D
:100D600032680292029AD407FAD57B4A1A607B4A0B
:100D70001446116803910399C907FAD5784A116896
:100D8000C1F3402137680497049FFF07FAD5754FD8
:100D90001F6027680597059FFF07FAD51768002988
:100DA00000F0CF80B90540F1CC80316806910699FA
:100DB000CF07FAD56C491960216807910799C907CF
:100DC000FAD51168C1F3402137680897089FFF07DB
:100DD000FAD5664F1F6027680997099FFF07FAD564
:100DE0001268002900F0AF80910540F1AC803268B4
:100DF0000A920A9AD207FAD5564A1A6032680B92BA
:100E00000B9AD707FAD55A4A1A6031680C910C9997
:100E1000CC07FAD55749196031680D910D99C9076A
:100E2000FAD55549196031680E910E99CF07FAD558
:100E30005249196031680F910F99CC07FAD5504982
:100E40001960504B1E46196810911099C907FAD5C0
:100E50003F4C4D4B236033681193119BDB07FAD550
:100E60004A4B236033681293129BDF07FAD5484B35
:100E700023603A4B9846196813911399C907FAD51C
:100E8000324F386033681493149BDB07FAD5226025
:100E900033681593159BD807FAD53E4B236033680A
:100EA0001693169BD907FAD53B4B236033681793EB
:100EB000179BDA07FAD5394B236033681893189BD0
:100EC000DB07FAD5364B236033681993199BD80793
:100ED000FAD5344B236033681A931A9BD907FAD595
:100EE000314B236033681B931B9BDA07FAD52F4BDA
:100EF000236000F0D3F908BBD8F800301C931C9B8A
:100F0000DB07F9D53D6033681D931D9BD907FAD5E2
:100F1000274B236033681E931E9BDA07FAD5254BB7
:100F20002360D8F800301F931F9BDB07F9D50C4BCB
:100F30001B6813F4805F204B08BF184620B0BDE843
:100F4000F0811E48FAE71E48F8E700BF90B0025053
:100F500080B0025000100251C01F7229B4B002507C
:100F600088B00250C0CF0129C01F0E29C03F002900
:100F700040010249003184A800001649400108A13F
:100F800080440888B0B00250C044708880077A411D
:100F9000C0077E4100006A498006164940006E493C
:100FA0000002002100822021408220218082242111
:100FB00040A161A100C861510308F1000108F100DE
:100FC0000208F10008B540B1202801464FF00702A1
:100FD00028BF20210020FFF72BFC024B00221A60C3
:100FE00008BD00BF1CB802507FB51C681CB901F0D9
:100FF0001F041F2C27D1174C254626680196019EF9
:10100000F607FAD500F1A05000F52C4080000068EA
:101010002C680394039CE407FAD50F4C00EB611095
:1010200020600E4801F01F04006802901F2C18BFBA
:10103000C94302980FBF106001F01F0100FA01F1CF
:1010400011600021196010684300C00F136004B0E4
:1010500070BD00BFB4B00250E4B00250DCB002502A
:1010600030B51E4B85B01A46196800910099CC071F
:10107000FAD500F1A05000F52C40800001681368FB
:101080000193019BD807FAD5154B164C1868164DDD
:101090001F30202390FBF3F00138002810DA0023E2
:1010A0000130400153B1A0F120014FF00042134242
:1010B00004D1013881424FEA5202F8D105B030BD67
:1010C00013680393039BDB07FAD5431823602B684F
:1010D0000293029B002BE3D10138DEE7B4B002504B
:1010E000ACB00250E4B00250DCB002500A4600211D
:1010F000AFF3008038B5A0F12003B3F5426F054689
:101100002CD88F2826D800F1470300F16604DB06AF
:101110004FEA541400D0013464013F34A40901346F
:1011200011B1A1421AD30C46E3004FF48050B0FB3A
:10113000F3F0202828BF202002B11060084B0122C4
:101140001A60214600F068F82846214600F088F829
:10115000002038BD00F11F046409DDE7014838BDF7
:101160001CB802502221F00070B5264888B0054610
:1011700004680094009CE607FAD52348234C0460D9
:10118000234C44EA83432C680194019CE407FAD57C
:101190000360930143EA824242F0104444F4C044A5
:1011A0002B680293029BDE07FAD504602B68039339
:1011B000039BDB07FAD5174B03608B0143EA8141A0
:1011C00041F0104343F4C0432E680496049EF60792
:1011D000FAD503602B680593059BDE07FAD50460FA
:1011E00041F058412B680693069BDC07FAD5016055
:1011F00042F058422B680793079BDB07FAD5026041
:1012000008B070BDB0B0025080B00250C0210229B9
:10121000807100988061189030B500220C4C490014
:101220001346023840F6FC75904202F10102CABF33
:10123000236025605B181E2A04F10404F4D1054ADA
:1012400019441360044B054A19609A6030BD00BF11
:1012500000B0025078B002507CB0025020F80F006D
:101260000C4B18603F3020F03F008901403058603F
:101270009960D9601961596199611C3306481960F8
:1012800082B002680192019AD207FAD5196002B0C1
:10129000704700BF90B00250B4B002502DE9F04149
:1012A00092B0012303930493624B1D461A68059282
:1012B000059AD207FAD5604C604B2360604B194603
:1012C0001A680692069AD707FAD55E4B1A68D604B2
:1012D00000F1A8802A680792079AD007FAD55A4ADF
:1012E00022600A680892089AD207FAD51E68C6F3E7
:1012F0000036002E40F098801220FFF7B1FE07461E
:101300001320FFF7ADFE87428CBF12201320FFF79A
:10131000A7FE471EFFF734F903AB01AA3946122096
:10132000FFF762FE04AB804602AA39461320FFF79E
:101330005BFE00EB4800022832D003283ED0012893
:1013400074D12B680993099BDB07FAD53F4B2360C7
:101350002B680A930A9BD807FAD53D4B23602B686C
:101360000F930F9BD907FAD53A4B23602B68109344
:10137000109BDA07FAD5384B23602B681193119B29
:10138000DB07FAD5354B2360013F25D51023192201
:1013900018210020FFF7E8FE304612B0BDE8F081CA
:1013A0002B680B930B9BD907FAD52D4B23602B6829
:1013B0000C930C9BDA07FAD52A4BCFE72B680D93D9
:1013C0000D9BDB07FAD5284B23602B680E930E9BF1
:1013D000D807FAD5254BC1E703AB01AA394612203D
:1013E000FFF702FE04AB044602AA39461320FFF7BA
:1013F000FBFD10EB440402D1FFF7CCFBC4E7FFF781
:101400000DFB022C08D0032C09D0012C10D1172180
:101410001620FFF743F9B7E715211420F9E70F214C
:101420000E20F6E7124EB7E7124EB5E7124EB3E7BD
:10143000124EB1E7B0B0025080B0025000084A51DD
:10144000B4B0025088B0025000084E5100065A490C
:1014500040065E49000442410014424940042E49BE
:10146000000652494006564900063A4940063E49A0
:101470000608F1000708F1000408F1000508F10072
:10148000014B1860704700BF08BA0250014B18604A
:10149000704700BF04BA0250094BC2431A60043BB4
:1014A00082B01B680193074B019A104204D0064A90
:1014B0001060186802B0704720BF1A680192F3E705
:1014C00004BA02501439002008BA0250FEF7CEBF09
:1014D000FEF7F6BF0A460021FEF7F2BF2DE9F743FB
:1014E00005460E469946114600F060FA044600286B
:1014F00040F08480002E00F08580002900F0848078
:10150000B9F1200F40F0828005F14404082205F172
:1015100004082046FFF726F805F124070822314683
:101520004046FFF71FF806F1200108223846FFF772
:1015300019F802A94FF4807041F8049DFFF7D6FD19
:10154000002865D1334A4FF4807313600121936002
:101550000823314AFFF706FA0121084605232F4ADE
:10156000FFF700FA0823424601211C20FFF7FAF991
:1015700008233A4601210320FFF7F4F92246082305
:1015800001210220FFF7EEF90823254A01211A2044
:10159000FFF7E8F90523234A01211B20FFF7E2F9B1
:1015A0000823214A01211420FFF7DCF908231F4AF0
:1015B00001211520FFF7D6F9082305F16402012166
:1015C0001620FFF7CFF9082305F184020121172027
:1015D000FFF7C8F90823164A01210B20FFF7C2F9CB
:1015E000FFF7AEFB04460198FFF7ECFC114B002C13
:1015F00018BF1C46A4212846FFF76CFF204603B005
:10160000BDE8F0830C4CF9E70C4CF7E70C4CF5E720
:10161000084CEFE790B00250508B0E00C88B0E00C4
:10162000108B0E00B48B0E00748B0E00948B0E008A
:10163000308B0E008408F0007608F0008008F0007F
:101640008108F00038B50D460446B0B1A022002153
:101650000430FFF73DFF95B12946082204F16400EC
:10166000FEF780FF082205F1200104F18400FEF757
:1016700079FF044B2360002038BD034838BD034880
:1016800038BD00BFDD55AABB7108F0008308F0002B
:101690002DE9F041069F044615461E46FFF7D2FF8E
:1016A00038B93B46324629462046BDE8F041FFF7AF
:1016B00015BFBDE8F08100002DE9FF41144B044641
:1016C0000E460FCB8DE80F00204600F07FF98046D4
:1016D000B0B9CEB1636A251D01953BB901236362A0
:1016E000226F04F13001684600F088F82B46043E72
:1016F000243453F8042B12BAA34246F8042FF8D12D
:10170000404604B0BDE8F081DFF80880F8E700BF8C
:10171000E08A0E000502F00038B5044668B1051DE8
:1017200028467021FFF7D6FE284620220449FFF7FD
:10173000CDFE044B2360002038BD034838BD00BFF8
:10174000F08A0E00DD55AABB0002F000294B2DE9FE
:10175000F04304460E4615460FCB85B06F468DE824
:101760000F002DB94FF00009484605B0BDE8F083E1
:10177000204600F02BF981460028F5D1231D019366
:10178000636AA3BB236F8BB1C3F14008A84528BF90
:10179000A84604F13000314618444246FFF796FE51
:1017A000236F434446442367A5EB0805226F402A74
:1017B00006D104F13001384600F020F800232367F9
:1017C00005F03F0835F03F0505D031462A4638463A
:1017D00000F014F82E44B8F1000FC3D04246314651
:1017E00004F13000FFF772FEC4F87080BCE7DFF848
:1017F0000890B9E7E08A0E000C02F0002DE9F74FDF
:10180000314B44688046924699461A68002AFCD1BA
:101810002E4B9B461A68002AFCD14FF0FF300191F5
:10182000FFF72EFE8020FFF731FE294D294A2A4F6F
:101830002A4E012307202B60A2F59E72C2F83C01BC
:101840001360636A3B60A36A3360D8F8003042F8E3
:10185000043CD8F80830204698470199D9F8003060
:10186000002BFBD1BAF1000F20D11D4B04221A60CE
:10187000D9F80030002BFBD1DBF800A0BAF1000F43
:10188000FAD1D8F80C30204698473B686362336839
:10189000A362144BC3F800A0C3F844A1D9F80030E8
:1018A000002BFBD12B6003B0BDE8F08F236A012B26
:1018B00004BF0C4A13600C4B40201960C3F804A00D
:1018C000FFF7EAFDD4E700BF10B9025020BC025078
:1018D00018B8025000B90250CCB70250D0B702502D
:1018E000C8B7025084B6025028BC0250084B1B688F
:1018F0001B0EF02B08D1074B1A68074B9A4205D1F3
:10190000064B00201860704705207047062070477E
:1019100028B9025024BA02500000E0200CBA02504C
:101920000C4B1B68C3610C4B1B6883610B4B1B6822
:1019300043610B4B1B6803610A4B1B68C3600A4B76
:101940001B688360094B1B684360094B1B6803607D
:10195000704700BF5CB6025058B6025054B60250F1
:1019600050B602504CB6025048B6025044B602502F
:1019700040B602500C4BC2691A60826943F8042CCD
:10198000426943F8082C026943F80C2CC26843F8FA
:10199000102C826843F8142C426843F8182C026813
:1019A00043F81C2C704700BF5CB6025030B102688F
:1019B000034B04489A4208BF002070470248704712
:1019C000DD55AABB8208F0007108F00030B1026852
:1019D000034B04489A4208BF0020704702487047F2
:1019E000DD55AABB0202F0000002F00010B504F0C1
:1019F000FBFEBDE8104004F09BBE00000249024817
:101A0000091F096800680847F000002030B54FF052
:101A1000805000228300D0F83011C3F80C21C3F8A5
:101A20001021624B1A60624B1B68624C2360604B52
:101A30001B1D1B68241D23605D4B08331B68241D80
:101A400023605B4B0C331B68241D2360584B103301
:101A50001B68241D2360564B14331B68241D236010
:101A6000534B18331B68534C20342360504B1C33AA
:101A70001B68241D23604E4B20331B68241D2360EC
:101A80004B4B24331B68241D2360494B28331B68B0
:101A9000241D2360464B2C331B68241D2360444BBC
:101AA00030331B68434C40342360414B34331B6854
:101AB000241D23603E4B38331B68241D23603C4BA0
:101AC0003C331B68241D2360394B40331B68241DA5
:101AD00023600124082902D1D0F8343113B1082938
:101AE00004D006E0354B3449196005E0D0F83431B4
:101AF00013B1082904D006E0314BFB21196005E041
:101B0000D0F8343113B1082908D00EE090F85832DB
:101B10002C48016863F30301016002E0D0F834311E
:101B20001BB929494FF40070086028480168C907AB
:101B300002D06FF0010101602548016841F4700195
:101B40000160BFF34F8FBFF36F8F4FF01021D1F8BB
:101B50000002002803DBD1F80402002822DA1D4B22
:101B60001C601D480468002CFCD01224C1F80042FF
:101B70000568002DFCD0C1F8044201680029FCD0A2
:101B80001A6001680029FCD0BFF34F8F10487C38E1
:101B90000168124A01F4E06111430160BFF34F8F05
:101BA00000BFFDE70F490E48086030BD3805004012
:101BB0000404001020C50040488103008C560040FA
:101BC00018F50040E40E004040960240000400403A
:101BD00088ED00E004E5014000E401400400FA055E
:101BE0000090D003100100202DE9F05F5448D0F898
:101BF000045300242E464FF0010913E096FAA6F094
:101C0000B0FA80F7B80000F58070804604F00AFD55
:101C100028B1404604F00EFD09FA07F0044309FA22
:101C200007F08643002EE9D104F044F9002869D07A
:101C3000444AD078F0BBA00264D5434940F2A97869
:101C4000C1F80080081D036813F0FF0C02D0036880
:101C500003EA0C0C40F2AA7AC1F800A0036813F062
:101C6000FF0301D00668334040F2AB7BC1F800B0FF
:101C7000066816F0FF0601D007683E4040F2AC77D8
:101C80000F60076817EA0C0709D0D2F810C04CEAB9
:101C9000070CC2F810C0C1F800800760076840F266
:101CA000AD770F6007681F4009D0136943EA074307
:101CB000136100E026E0C1F800A00760036840F26D
:101CC000AE730B60036833400BD0DE0701D044F4E1
:101CD0000004DE0601D544F00104C1F800B0036041
:101CE0000068106930F0011102D005F080710C43DA
:101CF00010F0011F06D0690504D520F0011044F44E
:101D000080641061C4F3C05624F400044F46DFF829
:101D10003C8009E094FAA4F0B0FA80F558F8250068
:101D2000804707FA05F08443002CF3D106F07AFAD5
:101D3000002E03D0BDE8F05F02F0C0BABDE8F09F0E
:101D400000700240480000200078024058880E00D1
:101D5000034808B5002101600068009008BD00003C
:101D600000010140C11700EBD161074B4A1153F844
:101D7000222021F01F01411A01208840024201D097
:101D8000012070470020704700E100E00FB41CB54F
:101D90000A46521ECDE9000207A9054B6A4606987D
:101DA00000F018F8009A002111701CBC5DF814FBBB
:101DB00037220E0002E008C8121F08C1002AFAD11B
:101DC00070477047002001E001C1121F002AFBD1BB
:101DD000704700002DE9FF4F8DB00F4605460026E5
:101DE00006E025280BD0DDE90F1290476D1C761C0C
:101DF00028780028F5D111B03046BDE8F08F0024D6
:101E0000A246A1460122EC4900E0044315F8013F37
:101E1000203B02FA03F00842F7D128782A2810D094
:101E20006FF02F022878A0F13001092914D80AEBAD
:101E30008A0102EB410144F0020400EB010A6D1C2F
:101E4000F0E701CF5FEA000A03D544F40054CAF179
:101E5000000A44F002046D1C28782E2817D115F8CA
:101E6000010F44F004042A280ED06FF02F022878C6
:101E7000A0F1300109290AD809EB890102EB4101DF
:101E800000EB01096D1CF2E757F8049B6D1C2878E4
:101E90006C280FD006DC4C2817D068280DD06A2893
:101EA00014D104E0742810D07A280FD10DE044F446
:101EB00000140AE044F4801401E044F4401469780A
:101EC000814202D104F580146D1C6D1C2A786E2AA3
:101ED0001FD00CDC632A31D004DC002A8BD0582AB6
:101EE00011D1A3E0642A68D0692A0CD165E0732A75
:101EF0002ED004DC6F2A73D0702A04D19BE0752A9F
:101F00006FD0782A6ED01046DDE90F129047761C0C
:101F100050E1C4F30250022806D0032809D0042857
:101F200001CF09D0066045E101CFF117C0E900619A
:101F300040E101CF06803DE106703BE117F8040B5C
:101F40008DF8000000208DF80100EB46012003E031
:101F500057F804BB4FF0FF3061074FF0000102D487
:101F60000DE008F10101884649450FDA8045F8DBAC
:101F70001BF808100029F4D108E008F10101884697
:101F80008142FADB1BF808100029F6D1DDE90F23A6
:101F9000AAEB08008146214600F036F9304400EBF8
:101FA000080604E0DDE90F121BF8010B9047B8F1B9
:101FB0000108F7D221464846F7E00A21C4F302534C
:101FC0004FF0000B0891022B04D001CFC117032B57
:101FD00009D00AE0FF1D27F00707F7E8020108E033
:101FE00032E01FE020E000B2C117042B01D140B263
:101FF000C117031E71F1000307DA4FF0000CD0EB9C
:102000000C006CEB01012D2302E0230504D52B23EA
:102010008DF82430012303E0E30701D02023F7E704
:10202000984658E00A2110E010210EE010204FF0F1
:10203000000B08900CE010214FF0000B44F004045A
:102040004FF00809089103E008214FF0000B0891B8
:10205000C4F30253022B04D001CF0021032B06D07E
:1020600006E0FF1D27F00707F7E8020103E080B252
:10207000042B00D1C0B24FF0000823072BD5702AE3
:1020800007D0DDF820C08CF0100C5CEA0B0C05D0FA
:102090000EE040238DF82430012308E050EA0103CC
:1020A00006D030238DF824308DF825200223984661
:1020B000DDF820C08CF0080C5CEA0B0C0BD150EA68
:1020C000010301D1630706D530238DF824304FF08A
:1020D0000108A9F10109582A04D038A20B9208AAD4
:1020E0000A920BE03AA2F9E75B46089AFEF77EF9FE
:1020F0000B9B9B5C0A9A521E0A92137050EA0102D3
:10210000F2D10A98ADEB000000F1200B600702D578
:1021100024F4803401E04FF00109D94502DDA9EB38
:102120000B0000E0002000EB0B0141440890AAEBFB
:10213000010AE00306D4DDE90F232146504600F0F2
:1021400063F806444FF0000908E009A911F80900F6
:10215000DDE90F12904709F10109761CC145F4DB56
:10216000E0030CD5DDE90F232146504600F04CF882
:10217000064404E0DDE90F1230209047761C0899F0
:10218000481E08900029F5DC08E00A980A990078B2
:10219000491C0A91DDE90F129047761CBBF1000142
:1021A000ABF1010BF1DC21465046DDE90F2300F0D5
:1021B00019F806446D1C1BE6092801003031323342
:1021C0003435363738396162636465660000000073
:1021D000303132333435363738394142434445465D
:1021E000000000002DE9F041044600251E46174678
:1021F000880404D405E039462020B0476D1C641ED5
:10220000F9D52846BDE8F0812DE9F04104460025C6
:102210001E469046C80301D5302700E020278804D9
:1022200004D505E041463846B0476D1C641EF9D51B
:102230002846BDE8F0814A68002A06D00A68531C87
:102240000B6010704868401E48607047800701D0DE
:102250000020704701207047C3688B4206D81144A4
:102260000069491E814201D8012070470020704753
:1022700070B5104CA66C656A02F088FE216B0844AC
:102280006A1A3144814200D10022082302F02CF95D
:1022900006000DD102F07AFE0022294601F07EFCF4
:1022A000A16A814203D10121A561C4E90701304639
:1022B00070BD0000EC16002004F0B2FB2DE9F047E1
:1022C000244C8146924660880E4681423FD84FF6A4
:1022D000FF77002000F056FE22786078A1888842BF
:1022E00001DA401C00E00020C0B2904203D100207F
:1022F00000F04AFE29E065784FF0000860788842D7
:1023000001DA401C00E000206070002000F03CFE7C
:10231000BD421AD0A068B9F1000F40F835A00DD029
:1023200066B16188E068324605FB01004946FEF768
:102330009DF8A06800EBC500868003E000EBC500B7
:10234000A0F804800020BDE8F0870420FBE7092006
:10235000F9E700007800002010B50E4C03E0401CA7
:1023600000E00020207020786178814210D022782F
:102370006188E068A36802FB010003EBC20153F827
:102380003220898890472078A1888842E9DAE6E7F8
:1023900010BD00007800002030B5CB0008339DB29E
:1023A00093074FF0000401D0072030BD044B9A6022
:1023B0002A44DA605C701C7058809980002030BD1F
:1023C000780000203AB100680129C26000D00021E5
:1023D00081600020704707207047000038B50E4824
:1023E00008235822416800910C49006802F016FA4F
:1023F00000280FD10A4A69460A4801F07DFD040011
:1024000008D10121074801F0C2FD06490120083921
:102410000870204638BD0000F4880E00181E002009
:1024200001760E009000002070B504460A480D4663
:10243000814201D9072070BD0848226101F058FD92
:1024400028446060A06800B1A5602146BDE87040E6
:10245000002005F075BD000017FCFF009000002073
:10246000014600200875012005F06ABD70B50546DB
:102470000548446805E02946204601F04FFB2068E6
:102480000468002CF7D170BD9C00002070B509488D
:1024900044680CE0267A002505E02946204600F035
:1024A00003FC6D1CEDB2B542F7D320680468002C24
:1024B000F0D170BD9C00002070B50A4844680DE062
:1024C000267A002506E000222946204600F02AFC54
:1024D0006D1CEDB2B542F6D320680468002CEFD134
:1024E00070BD00009C00002070B50849054606201C
:1024F0004C6807E02946204601F010FB062803D16E
:1025000021680C68002CF5D170BD00009C000020F3
:102510002DE9FC41046806461546207F08340F4625
:10252000C0070DD0002000F02DFDA06950B1206A39
:10253000D8B31124002000F027FD2046BDE8FC811F
:102540000820FBE7E06EA8420DD32A463846A16E6C
:10255000FDF78CFFE06E401BE066A06E65672844C7
:10256000A0660024E6E7C4E90675304601F03DFBAD
:10257000054610480069CDE90004E26E6AB1A16E1B
:10258000A069FDF773FFE16EE069401AE061A069A0
:102590000844A0610020C4E91B016946284600F0F8
:1025A00057FA0400C6D19224C4E7FFE7C4E90875CE
:1025B000F9E7000054890E003EB50D460168144647
:1025C000097F11F0010F09D001F006FB00210095F1
:1025D000CDE90141694600F061FA3EBD08203EBDEB
:1025E000F8B5044600250FE0002705E0007800F06C
:1025F00043FA08B11120F8BD3946781CC7B23046FD
:1026000000F09CF80028F1D12946681CC5B220468C
:1026100000F0A6F80600E7D100250DE0002703E052
:102620000078214600F02DFA3946781CC7B23046B2
:1026300000F084F80028F3D12946681CC5B2204672
:1026400000F08EF80600E9D1074800E0086801684C
:102650000029FBD104600548694640690090606824
:10266000026820469047F8BDA000002008890E00AF
:102670002DE9F04F87B04FF000081D46934689467C
:102680000446DDF840A04646CDF80C8000E0761CFC
:102690006068012300224768214603A8B847002844
:1026A000F5D140468DF800800027B84601903BE008
:1026B000606801236A46D0F804C0214601A8E047BB
:1026C0006068012305AAD0F804C0214601A8E047AC
:1026D0009DF8141049451AD1D84514D19DF8000031
:1026E000CAF8000005F8010B6A1C85F800906068C4
:1026F0009DF800302146456801A89B1EA847002090
:1027000007B0BDE8F08F08F1010000F0FF08606835
:102710009DF800300022D0F804C0214601A89B1E7D
:10272000E0479DF800000744B742C1D30520E7E722
:1027300001484068704700009C00002042788A42AF
:1027400001D80020704782781044084470474278CE
:102750008A4201D8002070478278104408447047AC
:10276000027A8A4201D80020704701EB410109300A
:1027700008447047027A8A4201D80020704701EB72
:10278000410109300844704702484078002800D0D1
:10279000012070479C00002070B50D460978062482
:1027A00001260F293DD2DFE801F03C080C0E3C1A4F
:1027B0002B3C3C3C3C0C1E202900032005F066FC11
:1027C0002FE000242DE0284802F06AF80028F8D015
:1027D00026480660BFF36F8FBFF34F8FF1E700F01D
:1027E00065F804461DE0002005E02148006810F06F
:1027F000010F03D0022005F049FCE2E70120FAE7CF
:10280000E87803280DD01849091D0A6832B1002361
:102810000B6049689047040005D000E00E2403F0E7
:102820006BFC204670BD05F0DFFB28B1A8780028BE
:10283000F7D103F024FCF4E70E480078082810D103
:102840000C48001D007800070BD10A4808300078BA
:1028500010F0F00F05D107480C30007810F0F00FA1
:10286000DFD003F009FCDCE7C00000205C70024010
:1028700038040040E00F00F0024A0146D2E90002AD
:1028800010470000B81E002070B50C46054603F046
:10289000EDFBA84201D0102070BD0348D4E900121E
:1028A000C0E90212002070BDBC0000207FB50546C3
:1028B00005208DF8000006240DF1010003F0F4FB63
:1028C00005F092FB2949002008609DF8010010F0F6
:1028D0001F0006D001280FD0022826D0032833D1AC
:1028E00006E06946284604F0B5FF044606282AD1CA
:1028F0006846FFF7F9FD25E09DF8050003A900F003
:10290000EFF9050008D06A469DF80C1000F0C8F9F0
:102910000446062802D016E0102415E06A469DF809
:102920000C10284605F0B6F80CE09DF805000107EC
:1029300005D0694600F058F80446062803D16846D9
:1029400005F012F8044624B103F0D6FB04B020468B
:1029500070BD05F049FB30B103F088FB0028F5D1CC
:1029600003F08DFBF2E703F087FBEFE7C4000020E4
:10297000FEB5C08814460E46A04201D2054600E0CE
:102980001546844207D2802003F094F9B4FBF0F19D
:1029900000FB114068B100200096CDE901500020F5
:1029A00000F0F0FA6946802000F078F8040002D0C8
:1029B00006E00120F0E705498020FFF765FF0446A7
:1029C000002000F0E1FA2046FEBD000084890E00E0
:1029D00008B1402101600148704700000C1F002031
:1029E00003F01AB803F034B810B50C46010600F035
:1029F0000F02092A09D200F00BF8006828B14168DB
:102A00000A682146BDE810401047102010BD0000A4
:102A1000010600F00F0001D5034901E002494831E9
:102A200001EBC00070470000701E002010B5044686
:102A300000F00F00082805D2204603F0B5F8204624
:102A400003F068F92046BDE8104003F0BBB8000071
:102A500070B50C46054603F0F5F818B10548007846
:102A6000022801D0082070BD21462846BDE87040EC
:102A700003F0EAB89C00002010B5FFF7C9FF00681A
:102A800010BD10B50C46FFF7C3FF04601CB16168B0
:102A90000968416010BD0021FBE7000070B50C46DD
:102AA000054603F0CFF818B105480078022801D098
:102AB000082070BD21462846BDE8704003F050B99B
:102AC0009C0000200149096808470000001F002001
:102AD00070B501786B4C054609296FD007DC77D2B9
:102AE000DFE801F067779E808AA7AE76C30065486D
:102AF0008129007817D00DDC0A2971D00F2970D0F8
:102B0000802965D1052803D006283CD007285FD14D
:102B1000022081E082291BD0832936D0842957D115
:102B200003283AD03FE05848FFF7A6FE5648FFF783
:102B30009DFC0D2005F0F4FCA06810B95348007A04
:102B400000B1012003F0DCFAFFF7A0FC012063E0F4
:102B5000FFF79CFC03F000FB002005F015F94A4844
:102B6000401CFFF783FC4848401CFFF785FE0E2001
:102B700005F0D6FC207800F0EBF9002828D0BDE85D
:102B8000704002F0B1BE082046E0032820D103F0D7
:102B900001FB00281CD004203EE003F0FBFA10B13A
:102BA000042005F0F1F803F07DFB002810D006208A
:102BB00032E0002005F0B4FCA46807E057E007E02D
:102BC0002946204600F0AAFF20684468002CF7D16F
:102BD00070BDFFF75BFC022005F0D6F8012005E090
:102BE00047E02BE0052005F0CFF8032005F098FC26
:102BF0002846FFF741FE3FE0032005F091FC224804
:102C0000801CFFF739FE2048801CFFF72FFC20783E
:102C100006287FF47DAF0720BDE8704005F0B4B80A
:102C2000032005F0B1F8022005F07AFC2846FFF7F2
:102C30001DFC2846BDE87040FFF71EBE0F2019E0BE
:102C4000A878FFF7E5FED0E900232946104698470B
:102C50000028BDD0A8780107BAD000F00F010829DC
:102C6000B6D2BDE8704003F031B8082002E0092078
:102C700000E00A2005F054FC2846BDE87040FFF74C
:102C8000F5BB00009C00002019890E00001F0020E9
:102C9000FFF718BF0148FFF715BF000008890E00B5
:102CA000114642681368184770B5044640680D46DF
:102CB000C2680AB12046904720462946FFF750FDDA
:102CC00005464678002408E021462846FFF736FDF1
:102CD000007802F047FF641CE4B2B442F4D370BD44
:102CE0002DE9F04180460E480E46456814E02F7AE3
:102CF00000240DE021462846FFF732FD01784145CA
:102D000004D106B134702846BDE8F081641CE4B2F9
:102D1000BC42EFD328680568002DE8D10020F3E716
:102D20009C00002070B50446406815460E46836836
:102D30001BB120469847062803D1204631460DB1E5
:102D4000072070BDFFF70CFD05464678002408E01B
:102D500021462846FFF7F2FC0078FFF767FE641C67
:102D6000E4B2B442F4D3002070BD034600205A6898
:102D70001269002A01D01846104770472DE9F84320
:102D800004462B4803F01EF900284DD1294908704C
:102D90004860886048212848FDF790FB2648482174
:102DA0004830FDF78BFB2448244E80304CB194E82A
:102DB0000E00103080E80E001F489030016821B1ED
:102DC00005E006F12C010EC9F3E71D490160002062
:102DD00002F0DEFD18B1852801D0FFF76DFA194F1A
:102DE00000250DE0002403E000783946FFF749FE96
:102DF0002146641CE4B24046FFF7A0FC0028F3D152
:102E000029466D1CEDB23846FFF7AAFC5FEA0008C0
:102E1000E8D1706800906946384600F07FFE0400F3
:102E200004D003F031FA2046BDE8F8830020FBE728
:102E3000912C0E009C000020701E002008890E00BE
:102E4000D12A0E00C4890E0030B1012807D0022813
:102E500008D10548FFF736BE03480838FAE70248AC
:102E6000001FF7E7704700002A890E0010B503F035
:102E7000F5F810B103F0E8F808B1082010BD0448D7
:102E800002F096FD08B1FFF717FA002010BD000010
:102E900030890E0070B54FF0805086B0D0F8A81081
:102EA000D0F8A40089B241F4404300900BA20D2158
:102EB00001A8FEF76BFF0C4E40F21A3001AD3080D6
:102EC000002404E0285D06EB4401641C4880284689
:102ED000FDF7FFFAA042F5D806B070BD2530345892
:102EE0002530385800000000641F0020074803E028
:102EF000016811F0010F07D00168C1F340010029FA
:102F0000F6D00348FFF7DEBD7047000038040040EC
:102F10000D890E00034808B5806800906846FFF7E9
:102F2000D1FD08BD08890E00074918B1052803D353
:102F30000020704708687047044A105C0028FAD0E7
:102F400051F8200070470000D4000020388A0E009D
:102F5000092808D2DFE800F007070507070505057F
:102F600005000120704700207047092808D2DFE8DB
:102F700000F007070507070707070500012070474E
:102F80000020704700F002B800F008B872B602489E
:102F90000168491C01607047E80000200349086887
:102FA000401E086000D162B670470000E8000020B3
:102FB000102802D31038C0B2704740F0800070472C
:102FC00070B50D480146456AC06A8C6CAC2802D1C8
:102FD000486B04442D1A2A4621460848FDF780FA1A
:102FE000002807D001F0F0FD29462046BDE87040DA
:102FF00002F010B970BD0000EC16002000000E00B9
:10300000BFF34F8F05480168054A01F4E0611143A1
:103010000160BFF34F8F00BFFDE700000CED00E043
:103020000400FA051CB50446C00701D000F02CF8D6
:10303000A00708D5044800210323007800910A4620
:10304000019103F0E2F91CBD40860E00094908B564
:10305000085C0090684603F0F1F9D0F80425009B65
:103060000121994021EA0203C0F808351140C0F857
:103070000C1508BD41860E000249085C012103F0D1
:10308000EBB9000041860E007CB51E4800684FF089
:103090000005C00706D04FF01021D1F80403C0434B
:1030A000400710D0184E00240122305D0095002307
:1030B0001146019503F0A9F9641C042CF4D3BDE872
:1030C0007C4000F02BB8114A0120106010480368C2
:1030D000002BFCD0D1F8043323F007031B1DC1F8EB
:1030E0000433156001680029FCD0BFF34F8F0948F5
:1030F0000168094A01F4E06111430160BFF34F8F99
:1031000000BFFDE74006004041860E0004E5014097
:1031100000E401400CED00E00400FA0510B50024C5
:103120002046FFF7A9FF641C042CF9D310BD10B58D
:1031300043689C18446021B905E013F8010B01F8BD
:10314000010B521EF9D2012010BD000010B5054838
:10315000012101F0BBFBBFF35F8F08B1002010BD60
:10316000012010BD1C000020BFF35F8F014900202B
:10317000086070471C0000200449002008600449D2
:103180004FF48060C1F880017047000000A5025034
:1031900004E000E003490120086003498002C1F80F
:1031A0000001704700A5025004E000E070B500F196
:1031B0000806106815460C46202802D248F2145022
:1031C00070BDFFF7C3FF80B1FFF7E4FF2146304633
:1031D000FEF772FA0646FFF7CFFFFFF7C5FF30464E
:1031E00001F05EF9060003D004E048F2045070BD1F
:1031F000202028602021204601F0A1FE304670BD2D
:1032000010B50830FEF788FABDE8104001F048B963
:103210002DE9F04700F108090E461446FFF796FF26
:10322000B8B1FFF7B7FF4FF480584546AC4200D81D
:1032300025462A4631460E48FDF718F92A460C491C
:103240004846FEF783FA0700A4EB05042E4404D099
:1032500005E048F20450BDE8F087002CE5D1FFF707
:103260008BFFFFF781FF3846BDE8F04701F018B942
:103270009005002070B50B4800240460BFF35F8FF9
:10328000094D01202860FEF731FB01002C604FF052
:10329000030004D0052901D148F2035070BD00207D
:1032A00070BD00001C00002000A502500149002054
:1032B0000860704700A502504360CA699A420DD366
:1032C0008A690260886918448861086F1844086731
:1032D000C869C01AC86100D00120704701F12802F6
:1032E000026000208B67704770B50D460978002496
:1032F0000F2931D2DFE801F031083131300B0F30C6
:10330000300830313131310000F061FB25E02946D1
:1033100004F074FB0FE0064600F02EFC0146A8788E
:103320000024814219D00106E9784FF0030004D54A
:1033300031B901210CE004460FE021B101290CD084
:103340000329F8D109E0304600F050FB0446002183
:10335000304605F0DFF800E00624204670BD00008E
:103360002DE9F05FDFF83C968846097A89F800106D
:103370000168164605464FF0000A40F245325446B1
:103380001F46A1F245304FF0020B914276D04ADC45
:1033900040F22732A1F22730914270D027DC40F270
:1033A0001730A1F2173281426AD013DC4FF4457214
:1033B000914274D007DCE9B3A1F54071123971D0A4
:1033C000012960D17EE0A1F54071153969D001294C
:1033D00059D19DE0092A71D004DC012A6FD0022A5C
:1033E00051D1B9E00A2A6BD00F2A4CD1DFE00E2868
:1033F00067D00EDC072864D006DC012879D00528C8
:1034000078D006283FD118E10C2874D00D283AD185
:1034100041E11538092836D2DFE800F0F7353535B7
:1034200035F6F5F4F300132871D00FDCA0F103009A
:10343000102800E02CE026D2DFE800F0F3F2F1F0F3
:10344000EF2525EEEDECEB2525EAE9E837280CD051
:103450000CDC292870D004DC14286ED0282812D166
:1034600015E22D286AD032280DD140E2442871D0CF
:1034700007DC3E286FD03F2805D159E254E1A1E096
:103480004EE04928F3D00020C5F800A0BDE8F09F29
:1034900008212971002F05D840F212300CE01DE000
:1034A00000E029E00EB1297931700B210124297146
:1034B000012F07D840F2133028600DE05AE03EE0BB
:1034C00063E0C6E00EB12979315598F81410641CF8
:1034D0002971BC4202D32A600120D7E70EB12979B5
:1034E0003155641C85F804B0BC4205D340F2153058
:1034F000E2E774E096E0C3E00EB129793155641C2F
:1035000085F804B0BC4203D340F21630D4E79DE105
:103510000EB129793155641C85F804B0BC42CBD278
:103520000EB12879305598F81900641C2871BC42F6
:1035300005D34FF44670BFE7B4E193E1C5E10EB1A6
:1035400028793055641C85F804A0BC4204D340F2AD
:103550001930B1E7FEE1E0E10EB12879305589F884
:1035600001A0641C08E209202871BC4202D34FF478
:103570004870A1E70EB1287930550420641C2871E9
:10358000BC4202D340F2213096E70EB12879305583
:1035900099F801104046641CFFF7ECF8C9F80400E4
:1035A00000782871BC4202D340F2263084E70EB185
:1035B00028793055641C85F804A0BC4202D340F23F
:1035C000273079E70EB128793055D9F80400641C0A
:1035D000BC424078287102D34FF44A706CE70EB1B8
:1035E00028793055D9F8040098F81410641C007834
:1035F00081423AD185F804B0BC4213D34FF44B70EA
:103600005AE786E07AE06EE062E04FE012E106E120
:10361000FAE0EEE0E2E0D6E0CAE0BDE0B0E0A4E02F
:1036200098E08CE00EB128793055641C85F804B020
:10363000BC4202D340F22D303EE70EB1287930551E
:1036400098F81900641C2871BC4202D340F22E3055
:1036500032E70EB12879305514F1010485F804A041
:10366000BC4223D34FF44F7026E798F816108142DE
:10367000F4D10A202871BC4202D340F233301BE758
:103680000EB128793055641C85F804A0BC4202D3E1
:103690004FF44D7010E70EB128793055641C85F851
:1036A00004A0BC42D5D340F2353005E70EB12879ED
:1036B0003055D9F8040098F81410641C0078814241
:1036C00075D105202871BC4202D340F24130F3E6A7
:1036D0000EB1287930552420641C2871BC4202D3D5
:1036E00040F24230E8E60EB128793055641C85F886
:1036F00004A0BC4202D340F24330DDE60EB128798B
:1037000030551020641C2871BC4202D34FF4517014
:10371000D2E60EB1287930550120641C2871BC42D4
:1037200002D340F24530C7E60EB128793055052066
:10373000641C2871BC4202D34FF45270BCE60EB137
:10374000287930552420641C2871BC4202D340F2F1
:103750004930B1E60EB1287930550120641C28713A
:10376000BC4202D340F24A30A6E60EB12879305569
:103770000320641C2871BC4202D340F24B309BE60C
:103780000EB12879305598F81600641C2871BC4297
:1037900002D34FF453708FE60EB1287930550420D0
:1037A000641C2871BC4203D340F24F3084E65DE0D4
:1037B0000EB1287930552420641C2871BC4202D3F4
:1037C0004FF4547078E60EB128793055641C85F8B2
:1037D00004B0BC4202D340F251306DE60EB12879FC
:1037E0003055641C85F804B0BC4202D340F252301C
:1037F00062E60EB1287930550520641C2871BC4260
:1038000002D340F2553057E60EB1287930552420C6
:10381000641C2871BC4202D340F256304CE60EB113
:10382000287930550620641C2871BC4202D340F22E
:10383000573041E60EB12879305598F81400641CD1
:103840002871BC4202D34FF4567035E60EB1287988
:10385000305598F81600641C2871BC4202D340F21F
:10386000593029E60EB128793055641CD9F8041076
:103870004846497889F80210514689F803A073E058
:1038800007202871BC4202D340F26D3014E60EB11D
:10389000287930550520641C2871BC4202D340F2BF
:1038A0006E3009E60EB12879305599F80310641C82
:1038B000D9F80400FEF74BFFC9F80800007828711A
:1038C000BC4202D340F27230F6E50EB12879305591
:1038D000D9F8040098F81410641C0078814211D1C2
:1038E00003202871BC4202D340F27730E4E50EB1E8
:1038F00028793055641C40202871BC420DD340F219
:103900008330D9E598F816108142F4D185F804B0D7
:10391000BC42ECD34FF45F70CEE50EB12879305540
:10392000641C85F804A0BC4202D34FF46170C3E567
:103930000EB128793055D9F8040098F81410641C99
:103940000078814222D110202871BC4202D340F27B
:103950008930B1E50EB128793055641C99F803100F
:103960004846491C89F803108278C9B2914287D32E
:103970004178491C89F8011099F8011099F8000064
:103980008142FFF4F0AD40F2993095E598F81610B9
:103990008142E3D185F804A0BC42DBD340F28E30F3
:1039A0008AE50000B000002008B1032070470868D5
:1039B00010F8081F202901D006207047D0F8021007
:1039C000C160C1880182017A81740020704700685B
:1039D000002181830162816241678167C167C0F80C
:1039E000801000F130010167704700002DE9FC47AD
:1039F00004688146083400F0F8F807462F4800268E
:103A00008068CDE90004E069B0B1D4F8788045461B
:103A1000404500D205462A4604F12801A069FCF77A
:103A200025FD206F2844C4E91C60A8EB0500E06672
:103A300060192830A06627E0206F60672667E66679
:103A4000216A304621B1626AA161C4E907202CE0F5
:103A5000A06130E004F11802616A82E84300E26E7E
:103A60001AB38A4215D3A36E0A461946FCF7FEFC28
:103A7000E16EE069091AE166A16E0144A166606722
:103A80000021484604F046FD206A0028E2D1A661E4
:103A900011E0A16EFCF7EAFCE06E2067E169091A0B
:103AA000E161A1690818A06105D069463846FEF7B2
:103AB000CFFFBDE8FC870020FBE7000054890E0023
:103AC0004360CA699A4204D38A6902600B67CB617A
:103AD00003E001F1280202608B67002070470000BC
:103AE00010B541B1022913D1BDE8104001220949A6
:103AF0000948FEF70DBD07490122A1F1550002F06A
:103B0000EDFF012203490448FEF702FD0028F2D030
:103B100010BD0000D1380020908A0E004268126863
:103B20001047000070B5084C050009D0103421681A
:103B3000002907D008682060496828468847F6E7CA
:103B40000834F4E770BD0000BC1B0020054A0121C9
:103B500020B1012805D19170FFF7E4BF517000201A
:103B6000FAE77047BC1B00200249CA6B4260096C2F
:103B700081607047EC16002010B50021FEF7FAFDB9
:103B80000021FEF7E4FD007810BD406849688842D6
:103B900001D801207047002070470000F0B54FF0B9
:103BA000FF3622B11268D24300230A4D0DE032469F
:103BB000FAE7C45C62400824D70700D037462F409C
:103BC00087EA5202641EF7D15B1C8B42F1D3D043CB
:103BD000F0BD00002083B8ED10B50121FEF7CAFD4D
:103BE0000021FEF7B4FD007810BD10B50121FEF7ED
:103BF000C1FD0121FEF7ABFD007810BDF0B51469E1
:103C000006468DB020681546271DE0B1022920D058
:103C10000A2000906B4609AA304603F035FC0028C4
:103C20000FD009A901A8009A03F0D4FA01AE96E8D2
:103C30000F0005AE86E80F00236869683A4605A8BC
:103C400098470DB0F0BD0DB03046BDE8F04003F030
:103C500035BB6946304603F0C7FA0028F1D0236827
:103C600069683A46684698470028EAD002980028D2
:103C7000F5D1019870600120E3E753685B7813F099
:103C8000C00303D0402B03D00020704700F002B8DF
:103C9000FFF7B4BF2DE9FF410B46516806461446B5
:103CA0004878334D00F00F0210F0300055F82250E4
:103CB00006D0102806D0202808D0302856D13EE063
:103CC00022694DE061690120087047E0022B28D18C
:103CD000042A26D84FF0010869463046676903F088
:103CE00083FA00281AD009E00B79226913FB00221D
:103CF0006846A84770B13878401C3870029820B1E7
:103D0000616838784A799042EED3019870600298E1
:103D100060BB02E04FF00008F7E7404604B0BDE8A2
:103D2000F081D4E904300F79027817FB0233497926
:103D30008A421BD2521C02701A46616810E0087851
:103D40006169072A087009D1606801792069FCF768
:103D5000B5FB60682169806803F061FA22696168D7
:103D600004B03046AC46BDE8F04160470020D5E7DE
:103D7000BC8A0E004169002901D0C068084770471D
:103D800070B52B4C054686B0207838B9294A0021F9
:103D90002948FEF717FB70BB01202070264C4FF41A
:103DA0008076082D41D2DFE805F00F27324040042D
:103DB000400400F0A7FCF0B92068FEF751FBD0B931
:103DC000304600F099FC2CE00120FFF72BF91A494E
:103DD0001422091D6846FCF749FB44F6CD400290C9
:103DE0000190FF204FF0A0418DF80100049168463A
:103DF00000F0F4FBE3E716E042F26664204600F0D0
:103E000037FC06B02046BDE8704000F037BC40F6F5
:103E1000CD4500F077FC30B9226829461046FEF700
:103E200003FB002801D002F0FBFD06B070BD0000CE
:103E3000080000209D3E0E0028860E0010B50446A6
:103E4000032806D0042C04D0062C0ED0072C04D155
:103E50000BE00749002000F0D9FD06480168002961
:103E600005D02046BDE810400847FFF7C9F810BD4F
:103E700079450E000C00002010B50446062802D13A
:103E8000002001F04FFB04480168002903D02046C0
:103E9000BDE81040084710BD2000002010B50246C4
:103EA00040F6CD41FEF7C0FA08B102F0B9FDBDE819
:103EB00010400120FFF7CAB80A46014610460A78AA
:103EC000082A0BD14288521E93B243800288002AEE
:103ED00006D0002B04D1428003220A7003F005BBF8
:103EE00070474FF4A07202EB810189B200F0B0BAC2
:103EF0000068D0F80405704730B543791C4C44F88D
:103F000023204279231D03EBC20212790AB1082053
:103F100030BD02680C88C2F8084590F90420897801
:103F2000002A4FEA411106DA02F00F0202F1E02204
:103F300082F8141D03E002F1E02282F8001490F9E7
:103F40000420012402F01F0504FA05F15209920031
:103F500002F1E022C2F88012C2F80011417903EBAD
:103F6000C1010C71417943F83100002030BD0000DF
:103F7000EC00002090F90400012100F01F029140A4
:103F80004009800000F1E020C0F8001270470A46A6
:103F9000022100F054BA4FF4827100F059BA00685F
:103FA00001210160704700680121416070470000F5
:103FB000F8B5054622F07F462A684FF480344FF466
:103FC000A0708C4000EB81001F4680B2C2F808430D
:103FD0002A68C2F848432A680023135010580090FA
:103FE000286800EB8101D1F84005C1F840652968D7
:103FF000D1F80415401A20F07F40012803D10E4962
:104000004FF4046088472868C0F844432968D1F811
:104010000405301A20F07F40020201D540F07F40B5
:104020007A42904203DD022801DC0D20F8BDC1F880
:1040300004430020F8BD0000418A0E006FEA0061D1
:10404000C90F61F31F1070470106044900D5903174
:1040500000F00F0001EB001070470000D01B0020A3
:104060002DE9FC4180461F4615460E4600240D48AA
:1040700000F019FC38B11120BDE8FC8106EB0430DA
:1040800002F0FEF9641CAC42F8D1064800F005FCD1
:10409000CDE90057334600220221404600F0B4F932
:1040A0000020E9E7FC00002010B504F0A5F880200E
:1040B000FFF7CAFF817B0124032902D00068002892
:1040C00009D18020FFF7BAFF8440E143BDE81040EA
:1040D000014800F0EBBB10BD54000020812002F02D
:1040E00053BA822002F050BA832002F04DBA8420E5
:1040F00002F04ABA852002F047BA862002F044BA9C
:10410000872002F041BA000038B5882504F074F821
:104110002846FFF799FF817B0124032915D0006809
:10412000002811D12846FFF789FF8440E1430C485D
:1041300000F0BCFB0B480A49806800900C398DF8F0
:10414000025049686846884738BD2846FFF776FF21
:104150008440E143BDE83840014800F0A7BB0000BF
:104160005400002010880E0038B504F045F80020F7
:10417000FFF76AFF817B0124032905D0006868B13D
:10418000BDE8384001F07BBF0020FFF757FF8440B7
:10419000E143BDE838400A4800F088BB0020FFF743
:1041A0004DFF8440E143064800F080FB0548044988
:1041B000C0680C39009049686846884738BD0000DF
:1041C0005400002010880E00012002F0F9B90220EE
:1041D00002F0F6B9032002F0F3B9042002F0F0B9BE
:1041E000052002F0EDB9062002F0EAB9072002F03E
:1041F000E7B9000038B5082403F0FEFF2046FFF7BA
:1042000023FF817B032915D00068002812D12046A6
:10421000FFF714FF01218140C943074800F046FB26
:1042200006480549406900900C398DF802404968FC
:104230006846884738BD00005400002010880E00F2
:1042400070B5154804680460BFF36F8FBFF34F8FDC
:10425000BFF36F8FBFF34F8F01F02CFE38B10F48C3
:10426000016921F0011201F00111144301610126DD
:104270006CB194FAA4F0B0FA80F52846FEF798FEE7
:1042800006FA05F18C43294604F010F9F0E7BDE881
:10429000704003F0C7BF00006C740240480000206B
:1042A00010B5054CA078FFF7C9FE0146A078BDE81F
:1042B000104004F0FBB8000048000020F8B51A4890
:1042C00000681A4DC6B2A878FFF7B8FE012404FAB8
:1042D00000F12889EA68C04380B21043014202D04D
:1042E000A87804F05BF806F08000A8700020FFF7C3
:1042F000A5FE04FA00F68020FFF7A0FE04FA00F005
:1043000006430A48F1430C3000F0D0FA8020FFF752
:1043100095FE8440A86804430548AC60006A00909C
:10432000696868468847F8BD8074024048000020EC
:1043300010880E0038B5002000900B480068ADF8DA
:1043400002008820FFF77AFE012505FA00F4082014
:10435000FFF774FE054985402C43886804438C6050
:1043600049686846884738BD2075024048000020EB
:1043700070470000F8B518480568284602F066F94D
:10438000BFF36F8FBFF34F8F144E154CE80506D562
:1043900001206070706A0090616868468847A805CF
:1043A0004FF0000705D56770B06A009061686846F5
:1043B000884768050ED5607800280BD067700949DA
:1043C00001200860582002F053F9F06A00906168FB
:1043D00068468847F8BD00000074024010880E004F
:1043E0004800002008750240054908B500204870C3
:1043F000887004484068009049686846884708BD4E
:104400004800002010880E002DE9F04387B00446D4
:10441000DDE90E8980681D4616460F4600280BD040
:1044200018216846FCF74AF802A88DF8007080E869
:104430006003A1686846884707B0BDE8F083036859
:10444000C3F84413002A02D00068C0F80413704770
:1044500008B5006842582AB10022425040580090E6
:10446000012008BD002008BD0B2803D30B38C0B2C3
:1044700000F00AB8704700000249002208780A706C
:104480007047000024000020014908700B2070478D
:104490002400002001490120087070471500002009
:1044A00010B50F4C48F20351031B48F21652A042BC
:1044B00011D007DC00280AD00A4BC01808D0012808
:1044C00004D10BE00A2B01D00D2B07D0104610BDF4
:1044D00048F2015010BD48F2025010BD084610BD10
:1044E0000202F00000FE0FFF2DE9F04781461D4655
:1044F00016468846494502D10020BDE8F087A8EB62
:104500000900040B06F6FF704FF0000A070B00F0DD
:104510006DFBA5422AD22C4628E0A74202D8BA4613
:10452000354601E0A246250300225146484600F0E8
:104530003BFE0028E1D1681E00F003002A1A002388
:1045400041464846D21C00F041FE0028D5D109481A
:10455000A7EB0A07761B016BA94429440163A84411
:10456000002000F089FF5FEA000AC6D1002ED4D1F6
:104570005046C2E7EC160020FEF742FD01494160BB
:10458000002070474C8A0E0002480068002800D0C6
:1045900001207047FC0000200268134602E08A42B6
:1045A00004D01268002AFAD10B600160704770B520
:1045B000054608680C464A6886682846314602F077
:1045C0004FFD6068286104F10C0068617078022179
:1045D000B1EB901F01D1241D2C6170BD2DE9F0417C
:1045E00004464078D8B3A178884238D9E078B0B38F
:1045F000E068A0B354211B48FBF760FF1948142260
:1046000021460C30FBF732FF164D0126174A6E701B
:10461000A078E1780844A88000202870E068A860AD
:10462000287B85F82000E068A86220696862FF2086
:1046300085F821000C4805F12001E86201F1100025
:10464000074600F06DF800280AD1AE70A078E17836
:104650000844C1B23846BDE8F04100F059B807201F
:10466000BDE8F081981F0020488A0E0089460E00A0
:104670000149086170470000981F00200149486106
:1046800070470000981F002070B5194919480A6842
:10469000002A2ADC02464478D37B928864B1447BAA
:1046A000E51A954206DC00224270848042690BE0E4
:1046B000521D0BE0D1180CE0847BE518954207D31E
:1046C0000122427084800269002AF1D10A6001E06F
:1046D000D11A818001790748303000F019F800289C
:1046E00005D0BDE87040FDF7E7BDFF3AEEE770BDCD
:1046F000F8000020981F00200146014800F048B84B
:10470000C81F0020014800F059B80000C81F002051
:1047100082788A4201D207207047C170002070471A
:1047200070B58261054608788E6828708868A86030
:104730008868E860486828624878A870C8680024DB
:10474000114A2146E861FDF73DFE00281AD111E02B
:10475000F0070DD02046202C02D24FF0A04102E0FD
:104760000A4904F01F0001EB80000322C0F8002773
:104770007608641C002EEBD1284602F0CCFD012007
:104780002871002070BD0000F5730E00000300507A
:1047900070B50446022020710D462046E16002F00B
:1047A000BAFDA0682843A06000202075A569A0611B
:1047B000204602F01FFE0020A56170BD70B50446C2
:1047C000C0690068FDF74CFE0546204602F0A3FDD7
:1047D0000DB1284670BD01202071002070BD000081
:1047E00010B500224FF48051104600F017F950B96F
:1047F00008480022C0F57E2100F010F918B90648DB
:1048000000F07AF908B102F00BF900F0B0F80020DE
:1048100010BD000000000E00813D0E0010B531B14A
:10482000B2FBF3F403FB14241CB1092010BD0E20CD
:1048300010BD01600021416081608281C381084612
:1048400010BD70B50C460546FBF7E8FC002802D009
:1048500021882868084470BD10B50A8849888A42B2
:1048600003D1FBF71DFD012010BD002010BD70B568
:104870000C460546FBF7F7FC002802D06188286843
:10488000084470BD10B50A8849888A4203D1FBF7F5
:10489000E1FC012010BD002010BD002100F006B891
:1048A000002100F009B8012100F00BB808B56A46F4
:1048B000FBF731FD009808BD08B56A46FBF72BFDF4
:1048C00008BD08B56A46FBF719FD08BD08B56A467C
:1048D000FBF708FD08BD70B5044600252846FEF725
:1048E00051FB21686268086890420ED9401E08603A
:1048F0000178238AE26801FB0325227A2168101AD5
:10490000C0B20A79824200D208710020FEF73CFB57
:10491000284670BD70B505460C460020FEF732FBF8
:10492000E868298A201AB0FBF1F12A681068431C54
:1049300013600170BDE870400020FEF725BB10B584
:1049400030B1017A42680368891AC9B21A6006E078
:104950000E2010BD03681A68541C1C601170491E9B
:10496000C9B2F7D2006800210171084610BD10B528
:104970004FF0E0224FF0FF314FF48054C2F8801125
:10498000C2F8801200F052FC2046BDE8104000F052
:1049900001B8000070B505461A4888B0C0F580110E
:1049A000002200F03BF8EFF30580D5E90045C00593
:1049B000C00D4FF0FF364FF0000181F3148881F3F2
:1049C000108881F3118881F3138812D020220E49B8
:1049D0006846FBF74BFD203C2022694620460695A1
:1049E000FBF744FDB21F31462046FBF713FC08B02D
:1049F00070BD08B02A4631462046BDE87040FBF73E
:104A000009BC000000000E0048860E000A46014660
:104A10000148006803F0B0BA68860E0070B50B0557
:104A200002D1B0F57F2F01D9072070BD0AB106254C
:104A300000E00225104A114B1468082C01D3042011
:104A400070BD03EB0416C6F80008C6F80418C6F8D3
:104A50000858641C146003EB0414D4F8F067864211
:104A6000EAD1D4F8F4678E42E6D1D4F8F847AC42E4
:104A7000E2D1002070BD00001000002000E00140E5
:104A800070B51A4D0024E86A2435012807D0A528FE
:104A900008D0AA2809D0AC280AD0002070BDFDF7A4
:104AA000E7FB0BE002F02EFE07E0FEF789FA05E0D7
:104AB00002F028FE08B9FEF783FA0124284600F028
:104AC00089FA0B49002008700A4800F0D5FC10B1A3
:104AD0000325284670BD0125002CFAD0012000F0E6
:104AE0003BFA0028F5D00225F3E70000EC16002081
:104AF0001500002095440E0070B52D490860002077
:104B000000F092FC00284DD1FFF7BAFF294C20B1EC
:104B1000012835D0022845D11BE00025216801205D
:104B2000C90302D50004206008E023490A6812F096
:104B3000A90F04D0086800F056000860002000F0BB
:104B40000BFA40B12068C00705D100F063FC48BBF8
:104B50002AE042F2107500F049F8184A2021182086
:104B6000FDF71AFC08B1FDF7A7FB2068C00703D0CA
:104B7000206840F00100206000F04AFB90B901E09D
:104B8000FEF73EFA0E492846FFF740FF0D4800F0B9
:104B900029FB38B900F018F8FDF7DEFB20BF40BF55
:104BA00020BFF7E7032070BDFFF7E1FEFAE7000042
:104BB0000C000020000400402005004040010020BF
:104BC00079450E003D3E0E0010B501F05DFD002858
:104BD00003D0BDE8104003F0BBBC10BD0A4601463F
:104BE0000148406803F0C8B968860E0070B5154DDD
:104BF0002878002825D101F047FD012600B312488E
:104C00000068400900EB4000840842F210708442C2
:104C100001D2012000E00020687003F099FC687860
:104C200020B9094808300068C00703D0074920466A
:104C3000FFF7D4FF4FF0E0214FF48030C1F80001BE
:104C40002E7070BD16000020040501408D850E00F9
:104C500000F180400068002800D00120704708B5AE
:104C600000F18040002101600068009008BD70B52F
:104C700004460D462022083000F056F9202205F1A6
:104C8000200104F1280000F04FF9002070BD000061
:104C9000F0B599B00D461D491E9E94460746016029
:104CA000202B00D320231C461A46614611A800F091
:104CB0003BF92022314601A800F004F914480121F3
:104CC000FFF704FEBFF35F8F002618B148F20450CF
:104CD00019B0F0BDFEF75EFA11AB01AA05F10801AB
:104CE00038460094FCF7D4FC0446FEF745FABFF3BF
:104CF0005F8F074806602000EAD00649CC4202D107
:104D000048F24250E4E748F21650E1E7DD55AABB0D
:104D10001C0000207CF70FFF70B516460C460546B8
:104D200000F0E9F800280ED1AA791946304600F0C3
:104D3000EFF8002807D131462046FFF798FF0028FA
:104D400001D10149216070BD7052464D2DE9F84FE7
:104D50006C460E46D4E90A7905469A4690461649AD
:104D6000304600F0BCF80028A54611D170684946CD
:104D700040794200384600F0CBF80028A54607D11C
:104D8000B8F1000001D02DB107E0A54648F210505F
:104D9000BDE8F88FAAB06D464DB182B002465346C9
:104DA000314628460097FFF773FFA546F0E748F223
:104DB0001550A546ECE700007052464D2DE9F04134
:104DC0001D46DDE906871646044600F02DF800284A
:104DD0000DD12A463146204600F03CF8002806D185
:104DE0003A4641462046BDE8F04100F002B8BDE831
:104DF000F08170B515460E46044603F099FB002875
:104E000007D13EB160682968C268914205D248F274
:104E1000145070BD48F2135070BD83682A46314665
:104E20002046BDE87040184710B550B161B14160EF
:104E3000096804468847002802D105482060002000
:104E400010BD48F2015010BD48F2105010BD0000D6
:104E50006E52464870B515460E46044603F068FB90
:104E600000280BD146B155B160682A4631464368E7
:104E70002046BDE87040184748F2105070BD002031
:104E800070BD00002DE9F0410B480C4D0C4F401B4C
:104E9000C60801203870002406E000BF55F8340031
:104EA0008047002805D1641CB442F7D30220387033
:104EB0000020BDE8F0810000048C0E00FC8B0E0089
:104EC0001800002070B514460D46064600F02CF878
:104ED000291930192246BDE8704000F025B828B1E4
:104EE0000068884205D048F24050704748F21050A0
:104EF00070470020704728B139B10022C1E9002075
:104F00001046704748F21050704748F213507047EF
:104F100020B1914205D048F21150704748F210502C
:104F200070470020704700000244521E04E000BF9A
:104F300011F8013B02F801398242F9D2704701446D
:104F4000491E05E002780B7800F8013B01F80129C1
:104F50008142F7D27047000010B50A4C216A01293E
:104F60000BD160B1E06950B100F010F80022A169E6
:104F7000FEF714FEE169814201D0002010BD01203E
:104F800010BD0000EC160020AFF300804FF440503D
:104F9000074A4168914207D18068411EC1F30B0165
:104FA000401A00F6FF7070474FF4805070470000C1
:104FB000DBE5B15100B5FFF7E9FF054989690A183A
:104FC000401E0844C0F30B00101A00F6FF7000BD2D
:104FD000EC160020002101604160816001480163FE
:104FE00070470000EC1600202DE9F0479946294C47
:104FF000294F90460E460546002301215BB1012B47
:1050000012D0022B1FD00020381AA0F54050A84221
:105010001CD201221BE0FFF7CDFFB8F1000F10D02A
:10502000216A0129F0D00CE0FFF7B0FFB9F1000FC1
:1050300005D14FF44051194A4968914201D00121EC
:10504000E2E70021E0E74FF48050DDE7002242EA8A
:105050000600884305D0022B03D25B1CDBB2022B77
:10506000CBD912B10420BDE8F087022B02D300F0A7
:1050700033FA00E01BB107481830FFF7ABFF002000
:1050800020610120606103482430FFF7A3FF002066
:105090006562E8E7EC16002000000E00DBE5B15188
:1050A00070B504460078092811D2DFE800F0100539
